:100000000C947D000C94FA010C94FA010C94FA0102
:100010000C94FA010C94B0000C948C010C94FA012D
:100020000C94FA010C9426010C94FA010C94FA0138
:100030000C94FA010C94FA010C94FA010C94FA0154
:100040000C94FA010C94FA010C94FA010C94FA0144
:100050000C94FA010C94FA010C94FA010C94FA0134
:100060000C94FA010C945A010C94FA010C94FA01C4
:100070000C94FA010C94FA010C94FA010C94FA0114
:100080000C94FA010C94FA010C94FA010C94FA0104
:100090000C94FA010C94FA010C94FA010C94FA01F4
:1000A0000C94FA010C94FA010C94FA010C94FA01E4
:1000B0000C94FA010C94FA010C94FA010C94FA01D4
:1000C0000C94FA010C94FA010C94FA010C94FA01C4
:1000D0000C94FA010C94FA010C94FA010C94FA01B4
:1000E0000C94FA010C94FA010C94FA010C94FA01A4
:1000F0000C94FA01400040068000809101108F7C32
:10010000806080688093011011241FBECFEFCDBFA7
:10011000DFE7DEBFE4EFF0E040E019C0B791A79160
:1001200037912791079107FD0EC097918791EF01B5
:10013000F92FE82F0BBF07900D92A217B307D9F73D
:10014000FE011BBE04C01D92A217B307E1F7E93FF1
:10015000F40721F70E94F7010C94DB01F894FFCF1C
:100160001F920F920FB60F9211240BB60F922F937E
:100170003F934F935F936F937F938F939F93AF932F
:10018000BF93EF93FF938091430180FF07C0E091FD
:100190000440F0910540309709F0099580914301A2
:1001A00081FF07C0E0910240F0910340309709F0D1
:1001B000099583E080934301FF91EF91BF91AF9147
:1001C0009F918F917F916F915F914F913F912F916F
:0E01D0000F900BBE0F900FBE0F901F90189552
:1001DE001F93CF93DF93E0EAF0E080818C7E826103
:1001EE00808383E08183C0E5D0E011E01983E0E6EF
:1001FE00F0E080E8808F83EB848F81E880A383E832
:10020E00808389E1818380E4808B0E94CC010E94EF
:10021E00BC0183E9809380060E94EB01E0E0F2E0EE
:10022E0080E2808B15A78881897F82608883888190
:0E023E00816088838895DF91CF911F9108958C
:10024C001F920F920FB60F9211240BB60F922F9391
:10025C003F934F935F936F937F938F939F93AF9342
:10026C00BF93EF93FF930E94BC010E94E6018111A2
:10027C0003C00E94EF0102C00E94F30181E0809351
:10028C000B0AFF91EF91BF91AF919F918F917F914D
:10029C006F915F914F913F912F910F900BBE0F90EB
:0802AC000FBE0F901F90189582
:1002B4001F920F920FB60F9211240BB60F922F9329
:1002C4003F934F935F936F937F938F939F93AF93DA
:1002D400BF93EF93FF930E94E601811103C00E9434
:1002E400EF0102C00E94F30181E080938706FF9131
:1002F400EF91BF91AF919F918F917F916F915F919A
:100304004F913F912F910F900BBE0F900FBE0F9006
:040314001F90189589
:100318001F920F920FB60F9211240BB60F922F93C4
:100328003F934F935F936F937F938F939F93AF9375
:10033800BF93EF93FF93E0910040F0910140309715
:1003480009F0099581E080935301FF91EF91BF91E6
:10035800AF919F918F917F916F915F914F913F9155
:100368002F910F900BBE0F900FBE0F901F901895F6
:10037800E0E6F4E084E08283828BE0E8F6E083E064
:10038800828381E080831092B40089E18583089597
:10039800E0E0F4E08CE083878FEF848780932C047F
:0E03A80080934C0480936C0480938C04089521
:1003B600EC010E94FF010E94FE01CE010E94000294
:0603C600CE010E94FC01C3
:0A03CC0080918706829581700895E4
:0803D60084E080930104089506
:0803DE0084E0809306040895F9
:0803E60084E0809305040895F2
:0603EE000E94EF00FFCFAA
:0403F4000C94000065
:0403F8000E94AE00B1
:0203FC00089562
:0203FE00089560
:0204000008955D
:00000001FF
