:100000000C947A000C94A7010C94A7010C94A701FE
:100010000C94A7010C9469010C94A7010C94A701FE
:100020000C94A7010C9490000C94A7010C94A701C8
:100030000C94A7010C94A7010C94A7010C94A701A0
:100040000C94A7010C94A7010C94A7010C94A70190
:100050000C94A7010C94A7010C94A7010C94A70180
:100060000C94A7010C94C4000C94A7010C94A70154
:100070000C94A7010C94A7010C94A7010C94A70160
:100080000C94A7010C94A7010C94A7010C94A70150
:100090000C94A7010C94A7010C94A7010C94A70140
:1000A0000C94A7010C94A7010C94A7010C94A70130
:1000B0000C94A7010C94A7010C94A7010C94A70120
:1000C0000C94A7010C94A7010C94A7010C94A70110
:1000D0000C94A7010C94A7010C94A7010C94A70100
:1000E0000C94A7010C94A7010C94A7010C94A701F0
:1000F0000C94A701809101108F7C806080688093B0
:10010000011011241FBECFEFCDBFDFE7DEBF0E947D
:0A011000F6000C948401F894FFCF70
:05011A0048454C5000B7
:100120001F920F920FB60F9211240BB60F922F93BE
:100130003F934F935F936F937F938F939F93AF936F
:10014000BF93EF93FF930E944A010E949601811191
:1001500003C00E949F0102C00E94A30181E080931E
:100160000B0AFF91EF91BF91AF919F918F917F917A
:100170006F915F914F913F912F910F900BBE0F9018
:080180000FBE0F901F901895AF
:100188001F920F920FB60F9211240BB60F922F9356
:100198003F934F935F936F937F938F939F93AF9307
:1001A800BF93EF93FF930E949601811103C00E94B1
:1001B8009F0102C00E94A30181E080938706FF91FE
:1001C800EF91BF91AF919F918F917F916F915F91C7
:1001D8004F913F912F910F900BBE0F900FBE0F9034
:0401E8001F901895B7
:1001EC000E9438010E945A010E944A010E949B0100
:1001FC000E9478017894E0E5F0E08081897F84604A
:10020C008083E0E5F0E08081816080838895808147
:10021C008E7F808384E0809307040E9438018AE1FA
:08022C0091E80E941A01EDCFD8
:100234000F931F93CF93DF938C01C0E0D0E007C0EE
:10024400F801EC0FFD1F80810E948F012196F801B7
:1002540001900020E9F73197E01BF10BCE17DF077F
:0C02640078F3DF91CF911F910F91089566
:10027000E0E2F4E080818D7F8083808181608083F3
:10028000E0E6F8E083E896E0808791878681806CDD
:0402900086830895C4
:10029400E0E6F4E084E08283828BE0E8F6E083E049
:1002A400828381E080831092B40089E1858308957C
:1002B400E0E0F4E08CE083878FEF848780932C0464
:0E02C40080934C0480936C0480938C04089506
:1002D2001F920F920FB60F9211248F9381E0809399
:0E02E20043018F910F900FBE0F901F90189543
:1002F000E0E4F1E082E0878381E090E08287938709
:08030000828389EF80830895D8
:10030800EC010E94AC010E94AB01CE010E94AD013C
:06031800CE010E94A901C4
:0E031E009091640895FFFCCF809362080895CB
:0A032C008091870682958170089584
:0803360084E0809301040895A6
:08033E0084E080930604089599
:0803460084E080930504089592
:04034E000C9400000B
:040352000E948B007A
:02035600089508
:02035800089506
:02035A00089504
:00000001FF
